{
  "_format": "hh-sol-artifact-1",
  "contractName": "BullBearFood",
  "sourceName": "contracts/src/BullBearFood.sol",
  "abi": [
    {
      "inputs": [],
      "stateMutability": "nonpayable",
      "type": "constructor"
    },
    {
      "anonymous": false,
      "inputs": [
        {
          "indexed": true,
          "internalType": "address",
          "name": "account",
          "type": "address"
        },
        {
          "indexed": true,
          "internalType": "address",
          "name": "operator",
          "type": "address"
        },
        {
          "indexed": false,
          "internalType": "bool",
          "name": "approved",
          "type": "bool"
        }
      ],
      "name": "ApprovalForAll",
      "type": "event"
    },
    {
      "anonymous": false,
      "inputs": [
        {
          "indexed": true,
          "internalType": "address",
          "name": "previousOwner",
          "type": "address"
        },
        {
          "indexed": true,
          "internalType": "address",
          "name": "newOwner",
          "type": "address"
        }
      ],
      "name": "OwnershipTransferred",
      "type": "event"
    },
    {
      "anonymous": false,
      "inputs": [
        {
          "indexed": true,
          "internalType": "address",
          "name": "operator",
          "type": "address"
        },
        {
          "indexed": true,
          "internalType": "address",
          "name": "from",
          "type": "address"
        },
        {
          "indexed": true,
          "internalType": "address",
          "name": "to",
          "type": "address"
        },
        {
          "indexed": false,
          "internalType": "uint256[]",
          "name": "ids",
          "type": "uint256[]"
        },
        {
          "indexed": false,
          "internalType": "uint256[]",
          "name": "values",
          "type": "uint256[]"
        }
      ],
      "name": "TransferBatch",
      "type": "event"
    },
    {
      "anonymous": false,
      "inputs": [
        {
          "indexed": true,
          "internalType": "address",
          "name": "operator",
          "type": "address"
        },
        {
          "indexed": true,
          "internalType": "address",
          "name": "from",
          "type": "address"
        },
        {
          "indexed": true,
          "internalType": "address",
          "name": "to",
          "type": "address"
        },
        {
          "indexed": false,
          "internalType": "uint256",
          "name": "id",
          "type": "uint256"
        },
        {
          "indexed": false,
          "internalType": "uint256",
          "name": "value",
          "type": "uint256"
        }
      ],
      "name": "TransferSingle",
      "type": "event"
    },
    {
      "anonymous": false,
      "inputs": [
        {
          "indexed": false,
          "internalType": "string",
          "name": "value",
          "type": "string"
        },
        {
          "indexed": true,
          "internalType": "uint256",
          "name": "id",
          "type": "uint256"
        }
      ],
      "name": "URI",
      "type": "event"
    },
    {
      "inputs": [
        {
          "internalType": "address",
          "name": "account",
          "type": "address"
        },
        {
          "internalType": "uint256",
          "name": "id",
          "type": "uint256"
        }
      ],
      "name": "balanceOf",
      "outputs": [
        {
          "internalType": "uint256",
          "name": "",
          "type": "uint256"
        }
      ],
      "stateMutability": "view",
      "type": "function"
    },
    {
      "inputs": [
        {
          "internalType": "address[]",
          "name": "accounts",
          "type": "address[]"
        },
        {
          "internalType": "uint256[]",
          "name": "ids",
          "type": "uint256[]"
        }
      ],
      "name": "balanceOfBatch",
      "outputs": [
        {
          "internalType": "uint256[]",
          "name": "",
          "type": "uint256[]"
        }
      ],
      "stateMutability": "view",
      "type": "function"
    },
    {
      "inputs": [
        {
          "internalType": "address",
          "name": "account",
          "type": "address"
        },
        {
          "internalType": "address",
          "name": "operator",
          "type": "address"
        }
      ],
      "name": "isApprovedForAll",
      "outputs": [
        {
          "internalType": "bool",
          "name": "",
          "type": "bool"
        }
      ],
      "stateMutability": "view",
      "type": "function"
    },
    {
      "inputs": [
        {
          "internalType": "address",
          "name": "account",
          "type": "address"
        },
        {
          "internalType": "uint256",
          "name": "amount",
          "type": "uint256"
        }
      ],
      "name": "mint",
      "outputs": [],
      "stateMutability": "nonpayable",
      "type": "function"
    },
    {
      "inputs": [],
      "name": "owner",
      "outputs": [
        {
          "internalType": "address",
          "name": "",
          "type": "address"
        }
      ],
      "stateMutability": "view",
      "type": "function"
    },
    {
      "inputs": [],
      "name": "renounceOwnership",
      "outputs": [],
      "stateMutability": "nonpayable",
      "type": "function"
    },
    {
      "inputs": [
        {
          "internalType": "address",
          "name": "from",
          "type": "address"
        },
        {
          "internalType": "address",
          "name": "to",
          "type": "address"
        },
        {
          "internalType": "uint256[]",
          "name": "ids",
          "type": "uint256[]"
        },
        {
          "internalType": "uint256[]",
          "name": "amounts",
          "type": "uint256[]"
        },
        {
          "internalType": "bytes",
          "name": "data",
          "type": "bytes"
        }
      ],
      "name": "safeBatchTransferFrom",
      "outputs": [],
      "stateMutability": "nonpayable",
      "type": "function"
    },
    {
      "inputs": [
        {
          "internalType": "address",
          "name": "from",
          "type": "address"
        },
        {
          "internalType": "address",
          "name": "to",
          "type": "address"
        },
        {
          "internalType": "uint256",
          "name": "id",
          "type": "uint256"
        },
        {
          "internalType": "uint256",
          "name": "amount",
          "type": "uint256"
        },
        {
          "internalType": "bytes",
          "name": "data",
          "type": "bytes"
        }
      ],
      "name": "safeTransferFrom",
      "outputs": [],
      "stateMutability": "nonpayable",
      "type": "function"
    },
    {
      "inputs": [
        {
          "internalType": "address",
          "name": "operator",
          "type": "address"
        },
        {
          "internalType": "bool",
          "name": "approved",
          "type": "bool"
        }
      ],
      "name": "setApprovalForAll",
      "outputs": [],
      "stateMutability": "nonpayable",
      "type": "function"
    },
    {
      "inputs": [
        {
          "internalType": "string",
          "name": "newuri",
          "type": "string"
        }
      ],
      "name": "setURI",
      "outputs": [],
      "stateMutability": "nonpayable",
      "type": "function"
    },
    {
      "inputs": [
        {
          "internalType": "bytes4",
          "name": "interfaceId",
          "type": "bytes4"
        }
      ],
      "name": "supportsInterface",
      "outputs": [
        {
          "internalType": "bool",
          "name": "",
          "type": "bool"
        }
      ],
      "stateMutability": "view",
      "type": "function"
    },
    {
      "inputs": [
        {
          "internalType": "address",
          "name": "",
          "type": "address"
        }
      ],
      "name": "totalBalance",
      "outputs": [
        {
          "internalType": "uint256",
          "name": "",
          "type": "uint256"
        }
      ],
      "stateMutability": "view",
      "type": "function"
    },
    {
      "inputs": [
        {
          "internalType": "address",
          "name": "newOwner",
          "type": "address"
        }
      ],
      "name": "transferOwnership",
      "outputs": [],
      "stateMutability": "nonpayable",
      "type": "function"
    },
    {
      "inputs": [
        {
          "internalType": "uint256",
          "name": "",
          "type": "uint256"
        }
      ],
      "name": "uri",
      "outputs": [
        {
          "internalType": "string",
          "name": "",
          "type": "string"
        }
      ],
      "stateMutability": "view",
      "type": "function"
    }
  ],
  "bytecode": "0x60806040526001600360146101000a81548160ff021916908360ff1602179055503480156200002d57600080fd5b506040518060400160405280600a81526020017f697066732e696f3a2f2f0000000000000000000000000000000000000000000081525062000075816200009c60201b60201c565b50620000966200008a620000b860201b60201c565b620000c060201b60201c565b6200029b565b8060029080519060200190620000b492919062000186565b5050565b600033905090565b6000600360009054906101000a900473ffffffffffffffffffffffffffffffffffffffff16905081600360006101000a81548173ffffffffffffffffffffffffffffffffffffffff021916908373ffffffffffffffffffffffffffffffffffffffff1602179055508173ffffffffffffffffffffffffffffffffffffffff168173ffffffffffffffffffffffffffffffffffffffff167f8be0079c531659141344cd1fd0a4f28419497f9722a3daafe3b4186f6b6457e060405160405180910390a35050565b828054620001949062000265565b90600052602060002090601f016020900481019282620001b8576000855562000204565b82601f10620001d357805160ff191683800117855562000204565b8280016001018555821562000204579182015b8281111562000203578251825591602001919060010190620001e6565b5b50905062000213919062000217565b5090565b5b808211156200023257600081600090555060010162000218565b5090565b7f4e487b7100000000000000000000000000000000000000000000000000000000600052602260045260246000fd5b600060028204905060018216806200027e57607f821691505b6020821081141562000295576200029462000236565b5b50919050565b6130b880620002ab6000396000f3fe608060405234801561001057600080fd5b50600436106100e95760003560e01c80636eacd3981161008c578063a22cb46511610066578063a22cb4651461025a578063e985e9c514610276578063f242432a146102a6578063f2fde38b146102c2576100e9565b80636eacd39814610202578063715018a6146102325780638da5cb5b1461023c576100e9565b80630e89341c116100c85780630e89341c1461016a5780632eb2c2d61461019a57806340c10f19146101b65780634e1273f4146101d2576100e9565b8062fdd58e146100ee57806301ffc9a71461011e57806302fe53051461014e575b600080fd5b61010860048036038101906101039190611b08565b6102de565b6040516101159190611b57565b60405180910390f35b61013860048036038101906101339190611bca565b6103a7565b6040516101459190611c12565b60405180910390f35b61016860048036038101906101639190611d73565b610489565b005b610184600480360381019061017f9190611dbc565b61049d565b6040516101919190611e71565b60405180910390f35b6101b460048036038101906101af9190611ffc565b610531565b005b6101d060048036038101906101cb9190611b08565b6105d2565b005b6101ec60048036038101906101e7919061218e565b610758565b6040516101f991906122c4565b60405180910390f35b61021c600480360381019061021791906122e6565b610871565b6040516102299190611b57565b60405180910390f35b61023a610889565b005b61024461089d565b6040516102519190612322565b60405180910390f35b610274600480360381019061026f9190612369565b6108c7565b005b610290600480360381019061028b91906123a9565b6108dd565b60405161029d9190611c12565b60405180910390f35b6102c060048036038101906102bb91906123e9565b610971565b005b6102dc60048036038101906102d791906122e6565b610a12565b005b60008073ffffffffffffffffffffffffffffffffffffffff168373ffffffffffffffffffffffffffffffffffffffff16141561034f576040517f08c379a0000000000000000000000000000000000000000000000000000000008152600401610346906124f2565b60405180910390fd5b60008083815260200190815260200160002060008473ffffffffffffffffffffffffffffffffffffffff1673ffffffffffffffffffffffffffffffffffffffff16815260200190815260200160002054905092915050565b60007fd9b67a26000000000000000000000000000000000000000000000000000000007bffffffffffffffffffffffffffffffffffffffffffffffffffffffff1916827bffffffffffffffffffffffffffffffffffffffffffffffffffffffff1916148061047257507f0e89341c000000000000000000000000000000000000000000000000000000007bffffffffffffffffffffffffffffffffffffffffffffffffffffffff1916827bffffffffffffffffffffffffffffffffffffffffffffffffffffffff1916145b80610482575061048182610a96565b5b9050919050565b610491610b00565b61049a81610b7e565b50565b6060600280546104ac90612541565b80601f01602080910402602001604051908101604052809291908181526020018280546104d890612541565b80156105255780601f106104fa57610100808354040283529160200191610525565b820191906000526020600020905b81548152906001019060200180831161050857829003601f168201915b50505050509050919050565b610539610b98565b73ffffffffffffffffffffffffffffffffffffffff168573ffffffffffffffffffffffffffffffffffffffff16148061057f575061057e85610579610b98565b6108dd565b5b6105be576040517f08c379a00000000000000000000000000000000000000000000000000000000081526004016105b5906125e5565b60405180910390fd5b6105cb8585858585610ba0565b5050505050565b6105da610b00565b606060004490506000600460ff16826040516020016105f99190612626565b6040516020818303038152906040528051906020012060001c61061c9190612670565b905060005b848160ff1610156107505760006004828461063c91906126dd565b6106469190612714565b9050600460008873ffffffffffffffffffffffffffffffffffffffff1673ffffffffffffffffffffffffffffffffffffffff16815260200190815260200160002060008260ff1660ff168152602001908152602001600020600081819054906101000a900461ffff16809291906106bc90612753565b91906101000a81548161ffff021916908361ffff16021790555050600560008873ffffffffffffffffffffffffffffffffffffffff1673ffffffffffffffffffffffffffffffffffffffff16815260200190815260200160002060008154809291906107279061277e565b919050555061073c878260ff16600188610ec2565b508080610748906127c7565b915050610621565b505050505050565b6060815183511461079e576040517f08c379a000000000000000000000000000000000000000000000000000000000815260040161079590612863565b60405180910390fd5b6000835167ffffffffffffffff8111156107bb576107ba611c48565b5b6040519080825280602002602001820160405280156107e95781602001602082028036833780820191505090505b50905060005b84518110156108665761083685828151811061080e5761080d612883565b5b602002602001015185838151811061082957610828612883565b5b60200260200101516102de565b82828151811061084957610848612883565b5b6020026020010181815250508061085f9061277e565b90506107ef565b508091505092915050565b60056020528060005260406000206000915090505481565b610891610b00565b61089b6000611073565b565b6000600360009054906101000a900473ffffffffffffffffffffffffffffffffffffffff16905090565b6108d96108d2610b98565b8383611139565b5050565b6000600160008473ffffffffffffffffffffffffffffffffffffffff1673ffffffffffffffffffffffffffffffffffffffff16815260200190815260200160002060008373ffffffffffffffffffffffffffffffffffffffff1673ffffffffffffffffffffffffffffffffffffffff16815260200190815260200160002060009054906101000a900460ff16905092915050565b610979610b98565b73ffffffffffffffffffffffffffffffffffffffff168573ffffffffffffffffffffffffffffffffffffffff1614806109bf57506109be856109b9610b98565b6108dd565b5b6109fe576040517f08c379a00000000000000000000000000000000000000000000000000000000081526004016109f5906125e5565b60405180910390fd5b610a0b85858585856112a6565b5050505050565b610a1a610b00565b600073ffffffffffffffffffffffffffffffffffffffff168173ffffffffffffffffffffffffffffffffffffffff161415610a8a576040517f08c379a0000000000000000000000000000000000000000000000000000000008152600401610a8190612924565b60405180910390fd5b610a9381611073565b50565b60007f01ffc9a7000000000000000000000000000000000000000000000000000000007bffffffffffffffffffffffffffffffffffffffffffffffffffffffff1916827bffffffffffffffffffffffffffffffffffffffffffffffffffffffff1916149050919050565b610b08610b98565b73ffffffffffffffffffffffffffffffffffffffff16610b2661089d565b73ffffffffffffffffffffffffffffffffffffffff1614610b7c576040517f08c379a0000000000000000000000000000000000000000000000000000000008152600401610b7390612990565b60405180910390fd5b565b8060029080519060200190610b949291906119bd565b5050565b600033905090565b8151835114610be4576040517f08c379a0000000000000000000000000000000000000000000000000000000008152600401610bdb90612a22565b60405180910390fd5b600073ffffffffffffffffffffffffffffffffffffffff168473ffffffffffffffffffffffffffffffffffffffff161415610c54576040517f08c379a0000000000000000000000000000000000000000000000000000000008152600401610c4b90612ab4565b60405180910390fd5b6000610c5e610b98565b9050610c6e818787878787611542565b60005b8451811015610e1f576000858281518110610c8f57610c8e612883565b5b602002602001015190506000858381518110610cae57610cad612883565b5b60200260200101519050600080600084815260200190815260200160002060008b73ffffffffffffffffffffffffffffffffffffffff1673ffffffffffffffffffffffffffffffffffffffff16815260200190815260200160002054905081811015610d4f576040517f08c379a0000000000000000000000000000000000000000000000000000000008152600401610d4690612b46565b60405180910390fd5b81810360008085815260200190815260200160002060008c73ffffffffffffffffffffffffffffffffffffffff1673ffffffffffffffffffffffffffffffffffffffff168152602001908152602001600020819055508160008085815260200190815260200160002060008b73ffffffffffffffffffffffffffffffffffffffff1673ffffffffffffffffffffffffffffffffffffffff1681526020019081526020016000206000828254610e049190612b66565b9250508190555050505080610e189061277e565b9050610c71565b508473ffffffffffffffffffffffffffffffffffffffff168673ffffffffffffffffffffffffffffffffffffffff168273ffffffffffffffffffffffffffffffffffffffff167f4a39dc06d4c0dbc64b70af90fd698a233a518aa5d07e595d983b8c0526c8f7fb8787604051610e96929190612bbc565b60405180910390a4610eac81878787878761154a565b610eba818787878787611552565b505050505050565b600073ffffffffffffffffffffffffffffffffffffffff168473ffffffffffffffffffffffffffffffffffffffff161415610f32576040517f08c379a0000000000000000000000000000000000000000000000000000000008152600401610f2990612c65565b60405180910390fd5b6000610f3c610b98565b90506000610f4985611739565b90506000610f5685611739565b9050610f6783600089858589611542565b8460008088815260200190815260200160002060008973ffffffffffffffffffffffffffffffffffffffff1673ffffffffffffffffffffffffffffffffffffffff1681526020019081526020016000206000828254610fc69190612b66565b925050819055508673ffffffffffffffffffffffffffffffffffffffff16600073ffffffffffffffffffffffffffffffffffffffff168473ffffffffffffffffffffffffffffffffffffffff167fc3d58168c5ae7397731d063d5bbf3d657854427343f4c083240f7aacaa2d0f628989604051611044929190612c85565b60405180910390a461105b8360008985858961154a565b61106a836000898989896117b3565b50505050505050565b6000600360009054906101000a900473ffffffffffffffffffffffffffffffffffffffff16905081600360006101000a81548173ffffffffffffffffffffffffffffffffffffffff021916908373ffffffffffffffffffffffffffffffffffffffff1602179055508173ffffffffffffffffffffffffffffffffffffffff168173ffffffffffffffffffffffffffffffffffffffff167f8be0079c531659141344cd1fd0a4f28419497f9722a3daafe3b4186f6b6457e060405160405180910390a35050565b8173ffffffffffffffffffffffffffffffffffffffff168373ffffffffffffffffffffffffffffffffffffffff1614156111a8576040517f08c379a000000000000000000000000000000000000000000000000000000000815260040161119f90612d20565b60405180910390fd5b80600160008573ffffffffffffffffffffffffffffffffffffffff1673ffffffffffffffffffffffffffffffffffffffff16815260200190815260200160002060008473ffffffffffffffffffffffffffffffffffffffff1673ffffffffffffffffffffffffffffffffffffffff16815260200190815260200160002060006101000a81548160ff0219169083151502179055508173ffffffffffffffffffffffffffffffffffffffff168373ffffffffffffffffffffffffffffffffffffffff167f17307eab39ab6107e8899845ad3d59bd9653f200f220920489ca2b5937696c31836040516112999190611c12565b60405180910390a3505050565b600073ffffffffffffffffffffffffffffffffffffffff168473ffffffffffffffffffffffffffffffffffffffff161415611316576040517f08c379a000000000000000000000000000000000000000000000000000000000815260040161130d90612ab4565b60405180910390fd5b6000611320610b98565b9050600061132d85611739565b9050600061133a85611739565b905061134a838989858589611542565b600080600088815260200190815260200160002060008a73ffffffffffffffffffffffffffffffffffffffff1673ffffffffffffffffffffffffffffffffffffffff168152602001908152602001600020549050858110156113e1576040517f08c379a00000000000000000000000000000000000000000000000000000000081526004016113d890612b46565b60405180910390fd5b85810360008089815260200190815260200160002060008b73ffffffffffffffffffffffffffffffffffffffff1673ffffffffffffffffffffffffffffffffffffffff168152602001908152602001600020819055508560008089815260200190815260200160002060008a73ffffffffffffffffffffffffffffffffffffffff1673ffffffffffffffffffffffffffffffffffffffff16815260200190815260200160002060008282546114969190612b66565b925050819055508773ffffffffffffffffffffffffffffffffffffffff168973ffffffffffffffffffffffffffffffffffffffff168573ffffffffffffffffffffffffffffffffffffffff167fc3d58168c5ae7397731d063d5bbf3d657854427343f4c083240f7aacaa2d0f628a8a604051611513929190612c85565b60405180910390a4611529848a8a86868a61154a565b611537848a8a8a8a8a6117b3565b505050505050505050565b505050505050565b505050505050565b6115718473ffffffffffffffffffffffffffffffffffffffff1661199a565b15611731578373ffffffffffffffffffffffffffffffffffffffff1663bc197c8187878686866040518663ffffffff1660e01b81526004016115b7959493929190612d95565b602060405180830381600087803b1580156115d157600080fd5b505af192505050801561160257506040513d601f19601f820116820180604052508101906115ff9190612e12565b60015b6116a85761160e612e4c565b806308c379a0141561166b5750611623612e6e565b8061162e575061166d565b806040517f08c379a00000000000000000000000000000000000000000000000000000000081526004016116629190611e71565b60405180910390fd5b505b6040517f08c379a000000000000000000000000000000000000000000000000000000000815260040161169f90612f76565b60405180910390fd5b63bc197c8160e01b7bffffffffffffffffffffffffffffffffffffffffffffffffffffffff1916817bffffffffffffffffffffffffffffffffffffffffffffffffffffffff19161461172f576040517f08c379a000000000000000000000000000000000000000000000000000000000815260040161172690613008565b60405180910390fd5b505b505050505050565b60606000600167ffffffffffffffff81111561175857611757611c48565b5b6040519080825280602002602001820160405280156117865781602001602082028036833780820191505090505b509050828160008151811061179e5761179d612883565b5b60200260200101818152505080915050919050565b6117d28473ffffffffffffffffffffffffffffffffffffffff1661199a565b15611992578373ffffffffffffffffffffffffffffffffffffffff1663f23a6e6187878686866040518663ffffffff1660e01b8152600401611818959493929190613028565b602060405180830381600087803b15801561183257600080fd5b505af192505050801561186357506040513d601f19601f820116820180604052508101906118609190612e12565b60015b6119095761186f612e4c565b806308c379a014156118cc5750611884612e6e565b8061188f57506118ce565b806040517f08c379a00000000000000000000000000000000000000000000000000000000081526004016118c39190611e71565b60405180910390fd5b505b6040517f08c379a000000000000000000000000000000000000000000000000000000000815260040161190090612f76565b60405180910390fd5b63f23a6e6160e01b7bffffffffffffffffffffffffffffffffffffffffffffffffffffffff1916817bffffffffffffffffffffffffffffffffffffffffffffffffffffffff191614611990576040517f08c379a000000000000000000000000000000000000000000000000000000000815260040161198790613008565b60405180910390fd5b505b505050505050565b6000808273ffffffffffffffffffffffffffffffffffffffff163b119050919050565b8280546119c990612541565b90600052602060002090601f0160209004810192826119eb5760008555611a32565b82601f10611a0457805160ff1916838001178555611a32565b82800160010185558215611a32579182015b82811115611a31578251825591602001919060010190611a16565b5b509050611a3f9190611a43565b5090565b5b80821115611a5c576000816000905550600101611a44565b5090565b6000604051905090565b600080fd5b600080fd5b600073ffffffffffffffffffffffffffffffffffffffff82169050919050565b6000611a9f82611a74565b9050919050565b611aaf81611a94565b8114611aba57600080fd5b50565b600081359050611acc81611aa6565b92915050565b6000819050919050565b611ae581611ad2565b8114611af057600080fd5b50565b600081359050611b0281611adc565b92915050565b60008060408385031215611b1f57611b1e611a6a565b5b6000611b2d85828601611abd565b9250506020611b3e85828601611af3565b9150509250929050565b611b5181611ad2565b82525050565b6000602082019050611b6c6000830184611b48565b92915050565b60007fffffffff0000000000000000000000000000000000000000000000000000000082169050919050565b611ba781611b72565b8114611bb257600080fd5b50565b600081359050611bc481611b9e565b92915050565b600060208284031215611be057611bdf611a6a565b5b6000611bee84828501611bb5565b91505092915050565b60008115159050919050565b611c0c81611bf7565b82525050565b6000602082019050611c276000830184611c03565b92915050565b600080fd5b600080fd5b6000601f19601f8301169050919050565b7f4e487b7100000000000000000000000000000000000000000000000000000000600052604160045260246000fd5b611c8082611c37565b810181811067ffffffffffffffff82111715611c9f57611c9e611c48565b5b80604052505050565b6000611cb2611a60565b9050611cbe8282611c77565b919050565b600067ffffffffffffffff821115611cde57611cdd611c48565b5b611ce782611c37565b9050602081019050919050565b82818337600083830152505050565b6000611d16611d1184611cc3565b611ca8565b905082815260208101848484011115611d3257611d31611c32565b5b611d3d848285611cf4565b509392505050565b600082601f830112611d5a57611d59611c2d565b5b8135611d6a848260208601611d03565b91505092915050565b600060208284031215611d8957611d88611a6a565b5b600082013567ffffffffffffffff811115611da757611da6611a6f565b5b611db384828501611d45565b91505092915050565b600060208284031215611dd257611dd1611a6a565b5b6000611de084828501611af3565b91505092915050565b600081519050919050565b600082825260208201905092915050565b60005b83811015611e23578082015181840152602081019050611e08565b83811115611e32576000848401525b50505050565b6000611e4382611de9565b611e4d8185611df4565b9350611e5d818560208601611e05565b611e6681611c37565b840191505092915050565b60006020820190508181036000830152611e8b8184611e38565b905092915050565b600067ffffffffffffffff821115611eae57611ead611c48565b5b602082029050602081019050919050565b600080fd5b6000611ed7611ed284611e93565b611ca8565b90508083825260208201905060208402830185811115611efa57611ef9611ebf565b5b835b81811015611f235780611f0f8882611af3565b845260208401935050602081019050611efc565b5050509392505050565b600082601f830112611f4257611f41611c2d565b5b8135611f52848260208601611ec4565b91505092915050565b600067ffffffffffffffff821115611f7657611f75611c48565b5b611f7f82611c37565b9050602081019050919050565b6000611f9f611f9a84611f5b565b611ca8565b905082815260208101848484011115611fbb57611fba611c32565b5b611fc6848285611cf4565b509392505050565b600082601f830112611fe357611fe2611c2d565b5b8135611ff3848260208601611f8c565b91505092915050565b600080600080600060a0868803121561201857612017611a6a565b5b600061202688828901611abd565b955050602061203788828901611abd565b945050604086013567ffffffffffffffff81111561205857612057611a6f565b5b61206488828901611f2d565b935050606086013567ffffffffffffffff81111561208557612084611a6f565b5b61209188828901611f2d565b925050608086013567ffffffffffffffff8111156120b2576120b1611a6f565b5b6120be88828901611fce565b9150509295509295909350565b600067ffffffffffffffff8211156120e6576120e5611c48565b5b602082029050602081019050919050565b600061210a612105846120cb565b611ca8565b9050808382526020820190506020840283018581111561212d5761212c611ebf565b5b835b8181101561215657806121428882611abd565b84526020840193505060208101905061212f565b5050509392505050565b600082601f83011261217557612174611c2d565b5b81356121858482602086016120f7565b91505092915050565b600080604083850312156121a5576121a4611a6a565b5b600083013567ffffffffffffffff8111156121c3576121c2611a6f565b5b6121cf85828601612160565b925050602083013567ffffffffffffffff8111156121f0576121ef611a6f565b5b6121fc85828601611f2d565b9150509250929050565b600081519050919050565b600082825260208201905092915050565b6000819050602082019050919050565b61223b81611ad2565b82525050565b600061224d8383612232565b60208301905092915050565b6000602082019050919050565b600061227182612206565b61227b8185612211565b935061228683612222565b8060005b838110156122b757815161229e8882612241565b97506122a983612259565b92505060018101905061228a565b5085935050505092915050565b600060208201905081810360008301526122de8184612266565b905092915050565b6000602082840312156122fc576122fb611a6a565b5b600061230a84828501611abd565b91505092915050565b61231c81611a94565b82525050565b60006020820190506123376000830184612313565b92915050565b61234681611bf7565b811461235157600080fd5b50565b6000813590506123638161233d565b92915050565b600080604083850312156123805761237f611a6a565b5b600061238e85828601611abd565b925050602061239f85828601612354565b9150509250929050565b600080604083850312156123c0576123bf611a6a565b5b60006123ce85828601611abd565b92505060206123df85828601611abd565b9150509250929050565b600080600080600060a0868803121561240557612404611a6a565b5b600061241388828901611abd565b955050602061242488828901611abd565b945050604061243588828901611af3565b935050606061244688828901611af3565b925050608086013567ffffffffffffffff81111561246757612466611a6f565b5b61247388828901611fce565b9150509295509295909350565b7f455243313135353a2061646472657373207a65726f206973206e6f742061207660008201527f616c6964206f776e657200000000000000000000000000000000000000000000602082015250565b60006124dc602a83611df4565b91506124e782612480565b604082019050919050565b6000602082019050818103600083015261250b816124cf565b9050919050565b7f4e487b7100000000000000000000000000000000000000000000000000000000600052602260045260246000fd5b6000600282049050600182168061255957607f821691505b6020821081141561256d5761256c612512565b5b50919050565b7f455243313135353a2063616c6c6572206973206e6f7420746f6b656e206f776e60008201527f6572206f7220617070726f766564000000000000000000000000000000000000602082015250565b60006125cf602e83611df4565b91506125da82612573565b604082019050919050565b600060208201905081810360008301526125fe816125c2565b9050919050565b6000819050919050565b61262061261b82611ad2565b612605565b82525050565b6000612632828461260f565b60208201915081905092915050565b7f4e487b7100000000000000000000000000000000000000000000000000000000600052601260045260246000fd5b600061267b82611ad2565b915061268683611ad2565b92508261269657612695612641565b5b828206905092915050565b600060ff82169050919050565b7f4e487b7100000000000000000000000000000000000000000000000000000000600052601160045260246000fd5b60006126e8826126a1565b91506126f3836126a1565b92508260ff03821115612709576127086126ae565b5b828201905092915050565b600061271f826126a1565b915061272a836126a1565b92508261273a57612739612641565b5b828206905092915050565b600061ffff82169050919050565b600061275e82612745565b915061ffff821415612773576127726126ae565b5b600182019050919050565b600061278982611ad2565b91507fffffffffffffffffffffffffffffffffffffffffffffffffffffffffffffffff8214156127bc576127bb6126ae565b5b600182019050919050565b60006127d2826126a1565b915060ff8214156127e6576127e56126ae565b5b600182019050919050565b7f455243313135353a206163636f756e747320616e6420696473206c656e67746860008201527f206d69736d617463680000000000000000000000000000000000000000000000602082015250565b600061284d602983611df4565b9150612858826127f1565b604082019050919050565b6000602082019050818103600083015261287c81612840565b9050919050565b7f4e487b7100000000000000000000000000000000000000000000000000000000600052603260045260246000fd5b7f4f776e61626c653a206e6577206f776e657220697320746865207a65726f206160008201527f6464726573730000000000000000000000000000000000000000000000000000602082015250565b600061290e602683611df4565b9150612919826128b2565b604082019050919050565b6000602082019050818103600083015261293d81612901565b9050919050565b7f4f776e61626c653a2063616c6c6572206973206e6f7420746865206f776e6572600082015250565b600061297a602083611df4565b915061298582612944565b602082019050919050565b600060208201905081810360008301526129a98161296d565b9050919050565b7f455243313135353a2069647320616e6420616d6f756e7473206c656e6774682060008201527f6d69736d61746368000000000000000000000000000000000000000000000000602082015250565b6000612a0c602883611df4565b9150612a17826129b0565b604082019050919050565b60006020820190508181036000830152612a3b816129ff565b9050919050565b7f455243313135353a207472616e7366657220746f20746865207a65726f20616460008201527f6472657373000000000000000000000000000000000000000000000000000000602082015250565b6000612a9e602583611df4565b9150612aa982612a42565b604082019050919050565b60006020820190508181036000830152612acd81612a91565b9050919050565b7f455243313135353a20696e73756666696369656e742062616c616e636520666f60008201527f72207472616e7366657200000000000000000000000000000000000000000000602082015250565b6000612b30602a83611df4565b9150612b3b82612ad4565b604082019050919050565b60006020820190508181036000830152612b5f81612b23565b9050919050565b6000612b7182611ad2565b9150612b7c83611ad2565b9250827fffffffffffffffffffffffffffffffffffffffffffffffffffffffffffffffff03821115612bb157612bb06126ae565b5b828201905092915050565b60006040820190508181036000830152612bd68185612266565b90508181036020830152612bea8184612266565b90509392505050565b7f455243313135353a206d696e7420746f20746865207a65726f2061646472657360008201527f7300000000000000000000000000000000000000000000000000000000000000602082015250565b6000612c4f602183611df4565b9150612c5a82612bf3565b604082019050919050565b60006020820190508181036000830152612c7e81612c42565b9050919050565b6000604082019050612c9a6000830185611b48565b612ca76020830184611b48565b9392505050565b7f455243313135353a2073657474696e6720617070726f76616c2073746174757360008201527f20666f722073656c660000000000000000000000000000000000000000000000602082015250565b6000612d0a602983611df4565b9150612d1582612cae565b604082019050919050565b60006020820190508181036000830152612d3981612cfd565b9050919050565b600081519050919050565b600082825260208201905092915050565b6000612d6782612d40565b612d718185612d4b565b9350612d81818560208601611e05565b612d8a81611c37565b840191505092915050565b600060a082019050612daa6000830188612313565b612db76020830187612313565b8181036040830152612dc98186612266565b90508181036060830152612ddd8185612266565b90508181036080830152612df18184612d5c565b90509695505050505050565b600081519050612e0c81611b9e565b92915050565b600060208284031215612e2857612e27611a6a565b5b6000612e3684828501612dfd565b91505092915050565b60008160e01c9050919050565b600060033d1115612e6b5760046000803e612e68600051612e3f565b90505b90565b600060443d1015612e7e57612f01565b612e86611a60565b60043d036004823e80513d602482011167ffffffffffffffff82111715612eae575050612f01565b808201805167ffffffffffffffff811115612ecc5750505050612f01565b80602083010160043d038501811115612ee9575050505050612f01565b612ef882602001850186611c77565b82955050505050505b90565b7f455243313135353a207472616e7366657220746f206e6f6e2d4552433131353560008201527f526563656976657220696d706c656d656e746572000000000000000000000000602082015250565b6000612f60603483611df4565b9150612f6b82612f04565b604082019050919050565b60006020820190508181036000830152612f8f81612f53565b9050919050565b7f455243313135353a204552433131353552656365697665722072656a6563746560008201527f6420746f6b656e73000000000000000000000000000000000000000000000000602082015250565b6000612ff2602883611df4565b9150612ffd82612f96565b604082019050919050565b6000602082019050818103600083015261302181612fe5565b9050919050565b600060a08201905061303d6000830188612313565b61304a6020830187612313565b6130576040830186611b48565b6130646060830185611b48565b81810360808301526130768184612d5c565b9050969550505050505056fea26469706673582212202b82c64e35a6853253cc9e5a2c2ed9b9601097ef12dc2100f389be992851e9e864736f6c63430008090033",
  "linkReferences": {},
  "deployedLinkReferences": {}
}