{
  "_format": "hh-sol-artifact-1",
  "contractName": "BullBear",
  "sourceName": "contracts/src/BullBear.sol",
  "abi": [
    {
      "inputs": [
        {
          "internalType": "string",
          "name": "_initialBaseUri",
          "type": "string"
        }
      ],
      "stateMutability": "nonpayable",
      "type": "constructor"
    },
    {
      "inputs": [
        {
          "internalType": "uint256",
          "name": "minPetTime",
          "type": "uint256"
        }
      ],
      "name": "TooSoonToPet",
      "type": "error"
    },
    {
      "anonymous": false,
      "inputs": [
        {
          "indexed": true,
          "internalType": "address",
          "name": "owner",
          "type": "address"
        },
        {
          "indexed": true,
          "internalType": "address",
          "name": "approved",
          "type": "address"
        },
        {
          "indexed": true,
          "internalType": "uint256",
          "name": "tokenId",
          "type": "uint256"
        }
      ],
      "name": "Approval",
      "type": "event"
    },
    {
      "anonymous": false,
      "inputs": [
        {
          "indexed": true,
          "internalType": "address",
          "name": "owner",
          "type": "address"
        },
        {
          "indexed": true,
          "internalType": "address",
          "name": "operator",
          "type": "address"
        },
        {
          "indexed": false,
          "internalType": "bool",
          "name": "approved",
          "type": "bool"
        }
      ],
      "name": "ApprovalForAll",
      "type": "event"
    },
    {
      "anonymous": false,
      "inputs": [
        {
          "indexed": false,
          "internalType": "uint256",
          "name": "_fromTokenId",
          "type": "uint256"
        },
        {
          "indexed": false,
          "internalType": "uint256",
          "name": "_toTokenId",
          "type": "uint256"
        }
      ],
      "name": "BatchMetadataUpdate",
      "type": "event"
    },
    {
      "anonymous": false,
      "inputs": [
        {
          "indexed": false,
          "internalType": "uint256",
          "name": "_tokenId",
          "type": "uint256"
        }
      ],
      "name": "MetadataUpdate",
      "type": "event"
    },
    {
      "anonymous": false,
      "inputs": [
        {
          "indexed": true,
          "internalType": "address",
          "name": "previousOwner",
          "type": "address"
        },
        {
          "indexed": true,
          "internalType": "address",
          "name": "newOwner",
          "type": "address"
        }
      ],
      "name": "OwnershipTransferred",
      "type": "event"
    },
    {
      "anonymous": false,
      "inputs": [
        {
          "indexed": true,
          "internalType": "address",
          "name": "from",
          "type": "address"
        },
        {
          "indexed": true,
          "internalType": "address",
          "name": "to",
          "type": "address"
        },
        {
          "indexed": true,
          "internalType": "uint256",
          "name": "tokenId",
          "type": "uint256"
        }
      ],
      "name": "Transfer",
      "type": "event"
    },
    {
      "inputs": [
        {
          "internalType": "address",
          "name": "to",
          "type": "address"
        },
        {
          "internalType": "uint256",
          "name": "tokenId",
          "type": "uint256"
        }
      ],
      "name": "approve",
      "outputs": [],
      "stateMutability": "nonpayable",
      "type": "function"
    },
    {
      "inputs": [
        {
          "internalType": "address",
          "name": "owner",
          "type": "address"
        }
      ],
      "name": "balanceOf",
      "outputs": [
        {
          "internalType": "uint256",
          "name": "",
          "type": "uint256"
        }
      ],
      "stateMutability": "view",
      "type": "function"
    },
    {
      "inputs": [],
      "name": "baseURI",
      "outputs": [
        {
          "internalType": "string",
          "name": "",
          "type": "string"
        }
      ],
      "stateMutability": "view",
      "type": "function"
    },
    {
      "inputs": [],
      "name": "bullBearToken",
      "outputs": [
        {
          "internalType": "contract BullBearToken",
          "name": "",
          "type": "address"
        }
      ],
      "stateMutability": "view",
      "type": "function"
    },
    {
      "inputs": [
        {
          "internalType": "uint256",
          "name": "tokenId",
          "type": "uint256"
        }
      ],
      "name": "canPet",
      "outputs": [
        {
          "internalType": "bool",
          "name": "",
          "type": "bool"
        }
      ],
      "stateMutability": "view",
      "type": "function"
    },
    {
      "inputs": [
        {
          "internalType": "uint256",
          "name": "tokenId",
          "type": "uint256"
        }
      ],
      "name": "getApproved",
      "outputs": [
        {
          "internalType": "address",
          "name": "",
          "type": "address"
        }
      ],
      "stateMutability": "view",
      "type": "function"
    },
    {
      "inputs": [
        {
          "internalType": "uint256",
          "name": "tokenId",
          "type": "uint256"
        }
      ],
      "name": "getHappiness",
      "outputs": [
        {
          "internalType": "uint8",
          "name": "",
          "type": "uint8"
        }
      ],
      "stateMutability": "view",
      "type": "function"
    },
    {
      "inputs": [],
      "name": "happinessDecayRatePerMinute",
      "outputs": [
        {
          "internalType": "uint8",
          "name": "",
          "type": "uint8"
        }
      ],
      "stateMutability": "pure",
      "type": "function"
    },
    {
      "inputs": [],
      "name": "initialHappiness",
      "outputs": [
        {
          "internalType": "uint8",
          "name": "",
          "type": "uint8"
        }
      ],
      "stateMutability": "pure",
      "type": "function"
    },
    {
      "inputs": [
        {
          "internalType": "address",
          "name": "owner",
          "type": "address"
        },
        {
          "internalType": "address",
          "name": "operator",
          "type": "address"
        }
      ],
      "name": "isApprovedForAll",
      "outputs": [
        {
          "internalType": "bool",
          "name": "",
          "type": "bool"
        }
      ],
      "stateMutability": "view",
      "type": "function"
    },
    {
      "inputs": [
        {
          "internalType": "uint256",
          "name": "tokenId",
          "type": "uint256"
        }
      ],
      "name": "isRekt",
      "outputs": [
        {
          "internalType": "bool",
          "name": "",
          "type": "bool"
        }
      ],
      "stateMutability": "view",
      "type": "function"
    },
    {
      "inputs": [],
      "name": "minPettingIntervalSeconds",
      "outputs": [
        {
          "internalType": "uint8",
          "name": "",
          "type": "uint8"
        }
      ],
      "stateMutability": "pure",
      "type": "function"
    },
    {
      "inputs": [],
      "name": "name",
      "outputs": [
        {
          "internalType": "string",
          "name": "",
          "type": "string"
        }
      ],
      "stateMutability": "view",
      "type": "function"
    },
    {
      "inputs": [],
      "name": "owner",
      "outputs": [
        {
          "internalType": "address",
          "name": "",
          "type": "address"
        }
      ],
      "stateMutability": "view",
      "type": "function"
    },
    {
      "inputs": [
        {
          "internalType": "uint256",
          "name": "tokenId",
          "type": "uint256"
        }
      ],
      "name": "ownerOf",
      "outputs": [
        {
          "internalType": "address",
          "name": "",
          "type": "address"
        }
      ],
      "stateMutability": "view",
      "type": "function"
    },
    {
      "inputs": [
        {
          "internalType": "uint256",
          "name": "tokenId",
          "type": "uint256"
        }
      ],
      "name": "pet",
      "outputs": [],
      "stateMutability": "nonpayable",
      "type": "function"
    },
    {
      "inputs": [],
      "name": "pettingBonus",
      "outputs": [
        {
          "internalType": "uint8",
          "name": "",
          "type": "uint8"
        }
      ],
      "stateMutability": "pure",
      "type": "function"
    },
    {
      "inputs": [],
      "name": "renounceOwnership",
      "outputs": [],
      "stateMutability": "nonpayable",
      "type": "function"
    },
    {
      "inputs": [
        {
          "internalType": "address",
          "name": "to",
          "type": "address"
        }
      ],
      "name": "safeMint",
      "outputs": [
        {
          "internalType": "uint256",
          "name": "",
          "type": "uint256"
        }
      ],
      "stateMutability": "nonpayable",
      "type": "function"
    },
    {
      "inputs": [
        {
          "internalType": "address",
          "name": "from",
          "type": "address"
        },
        {
          "internalType": "address",
          "name": "to",
          "type": "address"
        },
        {
          "internalType": "uint256",
          "name": "tokenId",
          "type": "uint256"
        }
      ],
      "name": "safeTransferFrom",
      "outputs": [],
      "stateMutability": "nonpayable",
      "type": "function"
    },
    {
      "inputs": [
        {
          "internalType": "address",
          "name": "from",
          "type": "address"
        },
        {
          "internalType": "address",
          "name": "to",
          "type": "address"
        },
        {
          "internalType": "uint256",
          "name": "tokenId",
          "type": "uint256"
        },
        {
          "internalType": "bytes",
          "name": "data",
          "type": "bytes"
        }
      ],
      "name": "safeTransferFrom",
      "outputs": [],
      "stateMutability": "nonpayable",
      "type": "function"
    },
    {
      "inputs": [
        {
          "internalType": "address",
          "name": "operator",
          "type": "address"
        },
        {
          "internalType": "bool",
          "name": "approved",
          "type": "bool"
        }
      ],
      "name": "setApprovalForAll",
      "outputs": [],
      "stateMutability": "nonpayable",
      "type": "function"
    },
    {
      "inputs": [
        {
          "internalType": "bytes4",
          "name": "interfaceId",
          "type": "bytes4"
        }
      ],
      "name": "supportsInterface",
      "outputs": [
        {
          "internalType": "bool",
          "name": "",
          "type": "bool"
        }
      ],
      "stateMutability": "view",
      "type": "function"
    },
    {
      "inputs": [],
      "name": "symbol",
      "outputs": [
        {
          "internalType": "string",
          "name": "",
          "type": "string"
        }
      ],
      "stateMutability": "view",
      "type": "function"
    },
    {
      "inputs": [
        {
          "internalType": "uint256",
          "name": "tokenId",
          "type": "uint256"
        }
      ],
      "name": "tokenURI",
      "outputs": [
        {
          "internalType": "string",
          "name": "",
          "type": "string"
        }
      ],
      "stateMutability": "view",
      "type": "function"
    },
    {
      "inputs": [
        {
          "internalType": "address",
          "name": "from",
          "type": "address"
        },
        {
          "internalType": "address",
          "name": "to",
          "type": "address"
        },
        {
          "internalType": "uint256",
          "name": "tokenId",
          "type": "uint256"
        }
      ],
      "name": "transferFrom",
      "outputs": [],
      "stateMutability": "nonpayable",
      "type": "function"
    },
    {
      "inputs": [
        {
          "internalType": "address",
          "name": "newOwner",
          "type": "address"
        }
      ],
      "name": "transferOwnership",
      "outputs": [],
      "stateMutability": "nonpayable",
      "type": "function"
    }
  ],
  "bytecode": "0x60a06040523480156200001157600080fd5b50604051620054793803806200547983398181016040528101906200003791906200049f565b6040518060400160405280600881526020017f42756c6c426561720000000000000000000000000000000000000000000000008152506040518060400160405280600481526020017f4242544b000000000000000000000000000000000000000000000000000000008152508160009080519060200190620000bb92919062000244565b508060019080519060200190620000d492919062000244565b505050620000f7620000eb6200017660201b60201c565b6200017e60201b60201c565b80600b90805190602001906200010f92919062000244565b506040516200011e90620002d5565b604051809103906000f0801580156200013b573d6000803e3d6000fd5b5073ffffffffffffffffffffffffffffffffffffffff1660808173ffffffffffffffffffffffffffffffffffffffff16815250505062000555565b600033905090565b6000600760009054906101000a900473ffffffffffffffffffffffffffffffffffffffff16905081600760006101000a81548173ffffffffffffffffffffffffffffffffffffffff021916908373ffffffffffffffffffffffffffffffffffffffff1602179055508173ffffffffffffffffffffffffffffffffffffffff168173ffffffffffffffffffffffffffffffffffffffff167f8be0079c531659141344cd1fd0a4f28419497f9722a3daafe3b4186f6b6457e060405160405180910390a35050565b82805462000252906200051f565b90600052602060002090601f016020900481019282620002765760008555620002c2565b82601f106200029157805160ff1916838001178555620002c2565b82800160010185558215620002c2579182015b82811115620002c1578251825591602001919060010190620002a4565b5b509050620002d19190620002e3565b5090565b611add806200399c83390190565b5b80821115620002fe576000816000905550600101620002e4565b5090565b6000604051905090565b600080fd5b600080fd5b600080fd5b600080fd5b6000601f19601f8301169050919050565b7f4e487b7100000000000000000000000000000000000000000000000000000000600052604160045260246000fd5b6200036b8262000320565b810181811067ffffffffffffffff821117156200038d576200038c62000331565b5b80604052505050565b6000620003a262000302565b9050620003b0828262000360565b919050565b600067ffffffffffffffff821115620003d357620003d262000331565b5b620003de8262000320565b9050602081019050919050565b60005b838110156200040b578082015181840152602081019050620003ee565b838111156200041b576000848401525b50505050565b6000620004386200043284620003b5565b62000396565b9050828152602081018484840111156200045757620004566200031b565b5b62000464848285620003eb565b509392505050565b600082601f83011262000484576200048362000316565b5b81516200049684826020860162000421565b91505092915050565b600060208284031215620004b857620004b76200030c565b5b600082015167ffffffffffffffff811115620004d957620004d862000311565b5b620004e7848285016200046c565b91505092915050565b7f4e487b7100000000000000000000000000000000000000000000000000000000600052602260045260246000fd5b600060028204905060018216806200053857607f821691505b602082108114156200054f576200054e620004f0565b5b50919050565b60805161342b620005716000396000610d54015261342b6000f3fe608060405234801561001057600080fd5b50600436106101a95760003560e01c8063715018a6116100f9578063c779c53711610097578063d1bf98b911610071578063d1bf98b9146104e2578063db5dc6aa14610500578063e985e9c51461051e578063f2fde38b1461054e576101a9565b8063c779c53714610476578063c87b56dd14610494578063d10eccba146104c4576101a9565b806395d89b41116100d357806395d89b4114610404578063a07d797214610422578063a22cb4651461043e578063b88d4fde1461045a576101a9565b8063715018a6146103be5780637f93d6f8146103c85780638da5cb5b146103e6576101a9565b80632f78e37311610166578063435986d911610140578063435986d9146103105780636352211e146103405780636c0360eb1461037057806370a082311461038e576101a9565b80632f78e3731461029457806340d097c3146102c457806342842e0e146102f4576101a9565b806301ffc9a7146101ae57806306fdde03146101de578063081812fc146101fc578063095ea7b31461022c578063130be9091461024857806323b872dd14610278575b600080fd5b6101c860048036038101906101c39190612342565b61056a565b6040516101d5919061238a565b60405180910390f35b6101e661057c565b6040516101f3919061243e565b60405180910390f35b61021660048036038101906102119190612496565b61060e565b6040516102239190612504565b60405180910390f35b6102466004803603810190610241919061254b565b610654565b005b610262600480360381019061025d9190612496565b61076c565b60405161026f919061238a565b60405180910390f35b610292600480360381019061028d919061258b565b610783565b005b6102ae60048036038101906102a99190612496565b6107e3565b6040516102bb91906125fa565b60405180910390f35b6102de60048036038101906102d99190612615565b61087e565b6040516102eb9190612651565b60405180910390f35b61030e6004803603810190610309919061258b565b610910565b005b61032a60048036038101906103259190612496565b610930565b604051610337919061238a565b60405180910390f35b61035a60048036038101906103559190612496565b61098a565b6040516103679190612504565b60405180910390f35b610378610a11565b604051610385919061243e565b60405180910390f35b6103a860048036038101906103a39190612615565b610a9f565b6040516103b59190612651565b60405180910390f35b6103c6610b57565b005b6103d0610b6b565b6040516103dd91906125fa565b60405180910390f35b6103ee610b80565b6040516103fb9190612504565b60405180910390f35b61040c610baa565b604051610419919061243e565b60405180910390f35b61043c60048036038101906104379190612496565b610c3c565b005b61045860048036038101906104539190612698565b610cad565b005b610474600480360381019061046f919061280d565b610cc3565b005b61047e610d25565b60405161048b91906125fa565b60405180910390f35b6104ae60048036038101906104a99190612496565b610d2e565b6040516104bb919061243e565b60405180910390f35b6104cc610d40565b6040516104d991906125fa565b60405180910390f35b6104ea610d49565b6040516104f791906125fa565b60405180910390f35b610508610d52565b60405161051591906128ef565b60405180910390f35b6105386004803603810190610533919061290a565b610d76565b604051610545919061238a565b60405180910390f35b61056860048036038101906105639190612615565b610e0a565b005b600061057582610e8e565b9050919050565b60606000805461058b90612979565b80601f01602080910402602001604051908101604052809291908181526020018280546105b790612979565b80156106045780601f106105d957610100808354040283529160200191610604565b820191906000526020600020905b8154815290600101906020018083116105e757829003601f168201915b5050505050905090565b600061061982610eef565b6004600083815260200190815260200160002060009054906101000a900473ffffffffffffffffffffffffffffffffffffffff169050919050565b600061065f8261098a565b90508073ffffffffffffffffffffffffffffffffffffffff168373ffffffffffffffffffffffffffffffffffffffff1614156106d0576040517f08c379a00000000000000000000000000000000000000000000000000000000081526004016106c790612a1d565b60405180910390fd5b8073ffffffffffffffffffffffffffffffffffffffff166106ef610f3a565b73ffffffffffffffffffffffffffffffffffffffff16148061071e575061071d81610718610f3a565b610d76565b5b61075d576040517f08c379a000000000000000000000000000000000000000000000000000000000815260040161075490612aaf565b60405180910390fd5b6107678383610f42565b505050565b600080610778836107e3565b60ff16149050919050565b61079461078e610f3a565b82610ffb565b6107d3576040517f08c379a00000000000000000000000000000000000000000000000000000000081526004016107ca90612b41565b60405180910390fd5b6107de838383611090565b505050565b600080600960008481526020019081526020016000209050600081600001544261080d9190612b90565b90506000603c82601460ff166108239190612bc4565b61082d9190612c4d565b90508260010160009054906101000a900460ff1660ff1681106108565760009350505050610879565b808360010160009054906101000a900460ff166108739190612c7e565b93505050505b919050565b60008061088b600861138a565b90506108976008611398565b6040518060400160405280428152602001600260646108b69190612cb2565b60ff16815250600960008381526020019081526020016000206000820151816000015560208201518160010160006101000a81548160ff021916908360ff16021790555090505061090783826113ae565b80915050919050565b61092b83838360405180602001604052806000815250610cc3565b505050565b600080600a60008481526020019081526020016000205414156109565760019050610985565b6000600a600084815260200190815260200160002054426109779190612b90565b9050600a60ff168110159150505b919050565b600080610996836113cc565b9050600073ffffffffffffffffffffffffffffffffffffffff168173ffffffffffffffffffffffffffffffffffffffff161415610a08576040517f08c379a00000000000000000000000000000000000000000000000000000000081526004016109ff90612d2f565b60405180910390fd5b80915050919050565b600b8054610a1e90612979565b80601f0160208091040260200160405190810160405280929190818152602001828054610a4a90612979565b8015610a975780601f10610a6c57610100808354040283529160200191610a97565b820191906000526020600020905b815481529060010190602001808311610a7a57829003601f168201915b505050505081565b60008073ffffffffffffffffffffffffffffffffffffffff168273ffffffffffffffffffffffffffffffffffffffff161415610b10576040517f08c379a0000000000000000000000000000000000000000000000000000000008152600401610b0790612dc1565b60405180910390fd5b600360008373ffffffffffffffffffffffffffffffffffffffff1673ffffffffffffffffffffffffffffffffffffffff168152602001908152602001600020549050919050565b610b5f611409565b610b696000611487565b565b600060026064610b7b9190612cb2565b905090565b6000600760009054906101000a900473ffffffffffffffffffffffffffffffffffffffff16905090565b606060018054610bb990612979565b80601f0160208091040260200160405190810160405280929190818152602001828054610be590612979565b8015610c325780601f10610c0757610100808354040283529160200191610c32565b820191906000526020600020905b815481529060010190602001808311610c1557829003601f168201915b5050505050905090565b610c4581610930565b610c8757600a6040517fa4d1a9c9000000000000000000000000000000000000000000000000000000008152600401610c7e9190612e12565b60405180910390fd5b42600a600083815260200190815260200160002081905550610caa81600a61154d565b50565b610cbf610cb8610f3a565b83836115c7565b5050565b610cd4610cce610f3a565b83610ffb565b610d13576040517f08c379a0000000000000000000000000000000000000000000000000000000008152600401610d0a90612b41565b60405180910390fd5b610d1f84848484611734565b50505050565b6000600a905090565b6060610d3982611790565b9050919050565b6000600a905090565b60006014905090565b7f000000000000000000000000000000000000000000000000000000000000000081565b6000600560008473ffffffffffffffffffffffffffffffffffffffff1673ffffffffffffffffffffffffffffffffffffffff16815260200190815260200160002060008373ffffffffffffffffffffffffffffffffffffffff1673ffffffffffffffffffffffffffffffffffffffff16815260200190815260200160002060009054906101000a900460ff16905092915050565b610e12611409565b600073ffffffffffffffffffffffffffffffffffffffff168173ffffffffffffffffffffffffffffffffffffffff161415610e82576040517f08c379a0000000000000000000000000000000000000000000000000000000008152600401610e7990612e9f565b60405180910390fd5b610e8b81611487565b50565b6000634906490660e01b7bffffffffffffffffffffffffffffffffffffffffffffffffffffffff1916827bffffffffffffffffffffffffffffffffffffffffffffffffffffffff19161480610ee85750610ee7826118a3565b5b9050919050565b610ef881611985565b610f37576040517f08c379a0000000000000000000000000000000000000000000000000000000008152600401610f2e90612d2f565b60405180910390fd5b50565b600033905090565b816004600083815260200190815260200160002060006101000a81548173ffffffffffffffffffffffffffffffffffffffff021916908373ffffffffffffffffffffffffffffffffffffffff160217905550808273ffffffffffffffffffffffffffffffffffffffff16610fb58361098a565b73ffffffffffffffffffffffffffffffffffffffff167f8c5be1e5ebec7d5bd14f71427d1e84f3dd0314c0f7b2291e5b200ac8c7c3b92560405160405180910390a45050565b6000806110078361098a565b90508073ffffffffffffffffffffffffffffffffffffffff168473ffffffffffffffffffffffffffffffffffffffff16148061104957506110488185610d76565b5b8061108757508373ffffffffffffffffffffffffffffffffffffffff1661106f8461060e565b73ffffffffffffffffffffffffffffffffffffffff16145b91505092915050565b8273ffffffffffffffffffffffffffffffffffffffff166110b08261098a565b73ffffffffffffffffffffffffffffffffffffffff1614611106576040517f08c379a00000000000000000000000000000000000000000000000000000000081526004016110fd90612f31565b60405180910390fd5b600073ffffffffffffffffffffffffffffffffffffffff168273ffffffffffffffffffffffffffffffffffffffff161415611176576040517f08c379a000000000000000000000000000000000000000000000000000000000815260040161116d90612fc3565b60405180910390fd5b61118383838360016119c6565b8273ffffffffffffffffffffffffffffffffffffffff166111a38261098a565b73ffffffffffffffffffffffffffffffffffffffff16146111f9576040517f08c379a00000000000000000000000000000000000000000000000000000000081526004016111f090612f31565b60405180910390fd5b6004600082815260200190815260200160002060006101000a81549073ffffffffffffffffffffffffffffffffffffffff02191690556001600360008573ffffffffffffffffffffffffffffffffffffffff1673ffffffffffffffffffffffffffffffffffffffff168152602001908152602001600020600082825403925050819055506001600360008473ffffffffffffffffffffffffffffffffffffffff1673ffffffffffffffffffffffffffffffffffffffff16815260200190815260200160002060008282540192505081905550816002600083815260200190815260200160002060006101000a81548173ffffffffffffffffffffffffffffffffffffffff021916908373ffffffffffffffffffffffffffffffffffffffff160217905550808273ffffffffffffffffffffffffffffffffffffffff168473ffffffffffffffffffffffffffffffffffffffff167fddf252ad1be2c89b69c2b068fc378daa952ba7f163c4a11628f55a4df523b3ef60405160405180910390a46113858383836001611aec565b505050565b600081600001549050919050565b6001816000016000828254019250508190555050565b6113c8828260405180602001604052806000815250611af2565b5050565b60006002600083815260200190815260200160002060009054906101000a900473ffffffffffffffffffffffffffffffffffffffff169050919050565b611411610f3a565b73ffffffffffffffffffffffffffffffffffffffff1661142f610b80565b73ffffffffffffffffffffffffffffffffffffffff1614611485576040517f08c379a000000000000000000000000000000000000000000000000000000000815260040161147c9061302f565b60405180910390fd5b565b6000600760009054906101000a900473ffffffffffffffffffffffffffffffffffffffff16905081600760006101000a81548173ffffffffffffffffffffffffffffffffffffffff021916908373ffffffffffffffffffffffffffffffffffffffff1602179055508173ffffffffffffffffffffffffffffffffffffffff168173ffffffffffffffffffffffffffffffffffffffff167f8be0079c531659141344cd1fd0a4f28419497f9722a3daafe3b4186f6b6457e060405160405180910390a35050565b604051806040016040528042815260200161157c8361156b866107e3565b611575919061304f565b6064611b4d565b60ff16815250600960008481526020019081526020016000206000820151816000015560208201518160010160006101000a81548160ff021916908360ff1602179055509050505050565b8173ffffffffffffffffffffffffffffffffffffffff168373ffffffffffffffffffffffffffffffffffffffff161415611636576040517f08c379a000000000000000000000000000000000000000000000000000000000815260040161162d906130d2565b60405180910390fd5b80600560008573ffffffffffffffffffffffffffffffffffffffff1673ffffffffffffffffffffffffffffffffffffffff16815260200190815260200160002060008473ffffffffffffffffffffffffffffffffffffffff1673ffffffffffffffffffffffffffffffffffffffff16815260200190815260200160002060006101000a81548160ff0219169083151502179055508173ffffffffffffffffffffffffffffffffffffffff168373ffffffffffffffffffffffffffffffffffffffff167f17307eab39ab6107e8899845ad3d59bd9653f200f220920489ca2b5937696c3183604051611727919061238a565b60405180910390a3505050565b61173f848484611090565b61174b84848484611b6f565b61178a576040517f08c379a000000000000000000000000000000000000000000000000000000000815260040161178190613164565b60405180910390fd5b50505050565b606061179b82610eef565b60006006600084815260200190815260200160002080546117bb90612979565b80601f01602080910402602001604051908101604052809291908181526020018280546117e790612979565b80156118345780601f1061180957610100808354040283529160200191611834565b820191906000526020600020905b81548152906001019060200180831161181757829003601f168201915b505050505090506000611845611d06565b905060008151141561185b57819250505061189e565b6000825111156118905780826040516020016118789291906131c0565b6040516020818303038152906040529250505061189e565b61189984611d98565b925050505b919050565b60007f80ac58cd000000000000000000000000000000000000000000000000000000007bffffffffffffffffffffffffffffffffffffffffffffffffffffffff1916827bffffffffffffffffffffffffffffffffffffffffffffffffffffffff1916148061196e57507f5b5e139f000000000000000000000000000000000000000000000000000000007bffffffffffffffffffffffffffffffffffffffffffffffffffffffff1916827bffffffffffffffffffffffffffffffffffffffffffffffffffffffff1916145b8061197e575061197d82611e00565b5b9050919050565b60008073ffffffffffffffffffffffffffffffffffffffff166119a7836113cc565b73ffffffffffffffffffffffffffffffffffffffff1614159050919050565b6001811115611ae657600073ffffffffffffffffffffffffffffffffffffffff168473ffffffffffffffffffffffffffffffffffffffff1614611a5a5780600360008673ffffffffffffffffffffffffffffffffffffffff1673ffffffffffffffffffffffffffffffffffffffff1681526020019081526020016000206000828254611a529190612b90565b925050819055505b600073ffffffffffffffffffffffffffffffffffffffff168373ffffffffffffffffffffffffffffffffffffffff1614611ae55780600360008573ffffffffffffffffffffffffffffffffffffffff1673ffffffffffffffffffffffffffffffffffffffff1681526020019081526020016000206000828254611add91906131e4565b925050819055505b5b50505050565b50505050565b611afc8383611e6a565b611b096000848484611b6f565b611b48576040517f08c379a0000000000000000000000000000000000000000000000000000000008152600401611b3f90613164565b60405180910390fd5b505050565b60008160ff168360ff161015611b6557829050611b69565b8190505b92915050565b6000611b908473ffffffffffffffffffffffffffffffffffffffff16612088565b15611cf9578373ffffffffffffffffffffffffffffffffffffffff1663150b7a02611bb9610f3a565b8786866040518563ffffffff1660e01b8152600401611bdb949392919061328f565b602060405180830381600087803b158015611bf557600080fd5b505af1925050508015611c2657506040513d601f19601f82011682018060405250810190611c2391906132f0565b60015b611ca9573d8060008114611c56576040519150601f19603f3d011682016040523d82523d6000602084013e611c5b565b606091505b50600081511415611ca1576040517f08c379a0000000000000000000000000000000000000000000000000000000008152600401611c9890613164565b60405180910390fd5b805181602001fd5b63150b7a0260e01b7bffffffffffffffffffffffffffffffffffffffffffffffffffffffff1916817bffffffffffffffffffffffffffffffffffffffffffffffffffffffff191614915050611cfe565b600190505b949350505050565b6060600b8054611d1590612979565b80601f0160208091040260200160405190810160405280929190818152602001828054611d4190612979565b8015611d8e5780601f10611d6357610100808354040283529160200191611d8e565b820191906000526020600020905b815481529060010190602001808311611d7157829003601f168201915b5050505050905090565b6060611da382610eef565b6000611dad611d06565b90506000815111611dcd5760405180602001604052806000815250611df8565b80611dd7846120ab565b604051602001611de89291906131c0565b6040516020818303038152906040525b915050919050565b60007f01ffc9a7000000000000000000000000000000000000000000000000000000007bffffffffffffffffffffffffffffffffffffffffffffffffffffffff1916827bffffffffffffffffffffffffffffffffffffffffffffffffffffffff1916149050919050565b600073ffffffffffffffffffffffffffffffffffffffff168273ffffffffffffffffffffffffffffffffffffffff161415611eda576040517f08c379a0000000000000000000000000000000000000000000000000000000008152600401611ed190613369565b60405180910390fd5b611ee381611985565b15611f23576040517f08c379a0000000000000000000000000000000000000000000000000000000008152600401611f1a906133d5565b60405180910390fd5b611f316000838360016119c6565b611f3a81611985565b15611f7a576040517f08c379a0000000000000000000000000000000000000000000000000000000008152600401611f71906133d5565b60405180910390fd5b6001600360008473ffffffffffffffffffffffffffffffffffffffff1673ffffffffffffffffffffffffffffffffffffffff16815260200190815260200160002060008282540192505081905550816002600083815260200190815260200160002060006101000a81548173ffffffffffffffffffffffffffffffffffffffff021916908373ffffffffffffffffffffffffffffffffffffffff160217905550808273ffffffffffffffffffffffffffffffffffffffff16600073ffffffffffffffffffffffffffffffffffffffff167fddf252ad1be2c89b69c2b068fc378daa952ba7f163c4a11628f55a4df523b3ef60405160405180910390a4612084600083836001611aec565b5050565b6000808273ffffffffffffffffffffffffffffffffffffffff163b119050919050565b6060600060016120ba84612183565b01905060008167ffffffffffffffff8111156120d9576120d86126e2565b5b6040519080825280601f01601f19166020018201604052801561210b5781602001600182028036833780820191505090505b509050600082602001820190505b600115612178578080600190039150507f3031323334353637383961626364656600000000000000000000000000000000600a86061a8153600a858161216257612161612c1e565b5b049450600085141561217357612178565b612119565b819350505050919050565b600080600090507a184f03e93ff9f4daa797ed6e38ed64bf6a1f01000000000000000083106121e1577a184f03e93ff9f4daa797ed6e38ed64bf6a1f01000000000000000083816121d7576121d6612c1e565b5b0492506040810190505b6d04ee2d6d415b85acef8100000000831061221e576d04ee2d6d415b85acef8100000000838161221457612213612c1e565b5b0492506020810190505b662386f26fc10000831061224d57662386f26fc10000838161224357612242612c1e565b5b0492506010810190505b6305f5e1008310612276576305f5e100838161226c5761226b612c1e565b5b0492506008810190505b612710831061229b57612710838161229157612290612c1e565b5b0492506004810190505b606483106122be57606483816122b4576122b3612c1e565b5b0492506002810190505b600a83106122cd576001810190505b80915050919050565b6000604051905090565b600080fd5b600080fd5b60007fffffffff0000000000000000000000000000000000000000000000000000000082169050919050565b61231f816122ea565b811461232a57600080fd5b50565b60008135905061233c81612316565b92915050565b600060208284031215612358576123576122e0565b5b60006123668482850161232d565b91505092915050565b60008115159050919050565b6123848161236f565b82525050565b600060208201905061239f600083018461237b565b92915050565b600081519050919050565b600082825260208201905092915050565b60005b838110156123df5780820151818401526020810190506123c4565b838111156123ee576000848401525b50505050565b6000601f19601f8301169050919050565b6000612410826123a5565b61241a81856123b0565b935061242a8185602086016123c1565b612433816123f4565b840191505092915050565b600060208201905081810360008301526124588184612405565b905092915050565b6000819050919050565b61247381612460565b811461247e57600080fd5b50565b6000813590506124908161246a565b92915050565b6000602082840312156124ac576124ab6122e0565b5b60006124ba84828501612481565b91505092915050565b600073ffffffffffffffffffffffffffffffffffffffff82169050919050565b60006124ee826124c3565b9050919050565b6124fe816124e3565b82525050565b600060208201905061251960008301846124f5565b92915050565b612528816124e3565b811461253357600080fd5b50565b6000813590506125458161251f565b92915050565b60008060408385031215612562576125616122e0565b5b600061257085828601612536565b925050602061258185828601612481565b9150509250929050565b6000806000606084860312156125a4576125a36122e0565b5b60006125b286828701612536565b93505060206125c386828701612536565b92505060406125d486828701612481565b9150509250925092565b600060ff82169050919050565b6125f4816125de565b82525050565b600060208201905061260f60008301846125eb565b92915050565b60006020828403121561262b5761262a6122e0565b5b600061263984828501612536565b91505092915050565b61264b81612460565b82525050565b60006020820190506126666000830184612642565b92915050565b6126758161236f565b811461268057600080fd5b50565b6000813590506126928161266c565b92915050565b600080604083850312156126af576126ae6122e0565b5b60006126bd85828601612536565b92505060206126ce85828601612683565b9150509250929050565b600080fd5b600080fd5b7f4e487b7100000000000000000000000000000000000000000000000000000000600052604160045260246000fd5b61271a826123f4565b810181811067ffffffffffffffff82111715612739576127386126e2565b5b80604052505050565b600061274c6122d6565b90506127588282612711565b919050565b600067ffffffffffffffff821115612778576127776126e2565b5b612781826123f4565b9050602081019050919050565b82818337600083830152505050565b60006127b06127ab8461275d565b612742565b9050828152602081018484840111156127cc576127cb6126dd565b5b6127d784828561278e565b509392505050565b600082601f8301126127f4576127f36126d8565b5b813561280484826020860161279d565b91505092915050565b60008060008060808587031215612827576128266122e0565b5b600061283587828801612536565b945050602061284687828801612536565b935050604061285787828801612481565b925050606085013567ffffffffffffffff811115612878576128776122e5565b5b612884878288016127df565b91505092959194509250565b6000819050919050565b60006128b56128b06128ab846124c3565b612890565b6124c3565b9050919050565b60006128c78261289a565b9050919050565b60006128d9826128bc565b9050919050565b6128e9816128ce565b82525050565b600060208201905061290460008301846128e0565b92915050565b60008060408385031215612921576129206122e0565b5b600061292f85828601612536565b925050602061294085828601612536565b9150509250929050565b7f4e487b7100000000000000000000000000000000000000000000000000000000600052602260045260246000fd5b6000600282049050600182168061299157607f821691505b602082108114156129a5576129a461294a565b5b50919050565b7f4552433732313a20617070726f76616c20746f2063757272656e74206f776e6560008201527f7200000000000000000000000000000000000000000000000000000000000000602082015250565b6000612a076021836123b0565b9150612a12826129ab565b604082019050919050565b60006020820190508181036000830152612a36816129fa565b9050919050565b7f4552433732313a20617070726f76652063616c6c6572206973206e6f7420746f60008201527f6b656e206f776e6572206f7220617070726f76656420666f7220616c6c000000602082015250565b6000612a99603d836123b0565b9150612aa482612a3d565b604082019050919050565b60006020820190508181036000830152612ac881612a8c565b9050919050565b7f4552433732313a2063616c6c6572206973206e6f7420746f6b656e206f776e6560008201527f72206f7220617070726f76656400000000000000000000000000000000000000602082015250565b6000612b2b602d836123b0565b9150612b3682612acf565b604082019050919050565b60006020820190508181036000830152612b5a81612b1e565b9050919050565b7f4e487b7100000000000000000000000000000000000000000000000000000000600052601160045260246000fd5b6000612b9b82612460565b9150612ba683612460565b925082821015612bb957612bb8612b61565b5b828203905092915050565b6000612bcf82612460565b9150612bda83612460565b9250817fffffffffffffffffffffffffffffffffffffffffffffffffffffffffffffffff0483118215151615612c1357612c12612b61565b5b828202905092915050565b7f4e487b7100000000000000000000000000000000000000000000000000000000600052601260045260246000fd5b6000612c5882612460565b9150612c6383612460565b925082612c7357612c72612c1e565b5b828204905092915050565b6000612c89826125de565b9150612c94836125de565b925082821015612ca757612ca6612b61565b5b828203905092915050565b6000612cbd826125de565b9150612cc8836125de565b925082612cd857612cd7612c1e565b5b828204905092915050565b7f4552433732313a20696e76616c696420746f6b656e2049440000000000000000600082015250565b6000612d196018836123b0565b9150612d2482612ce3565b602082019050919050565b60006020820190508181036000830152612d4881612d0c565b9050919050565b7f4552433732313a2061646472657373207a65726f206973206e6f74206120766160008201527f6c6964206f776e65720000000000000000000000000000000000000000000000602082015250565b6000612dab6029836123b0565b9150612db682612d4f565b604082019050919050565b60006020820190508181036000830152612dda81612d9e565b9050919050565b6000612dfc612df7612df2846125de565b612890565b612460565b9050919050565b612e0c81612de1565b82525050565b6000602082019050612e276000830184612e03565b92915050565b7f4f776e61626c653a206e6577206f776e657220697320746865207a65726f206160008201527f6464726573730000000000000000000000000000000000000000000000000000602082015250565b6000612e896026836123b0565b9150612e9482612e2d565b604082019050919050565b60006020820190508181036000830152612eb881612e7c565b9050919050565b7f4552433732313a207472616e736665722066726f6d20696e636f72726563742060008201527f6f776e6572000000000000000000000000000000000000000000000000000000602082015250565b6000612f1b6025836123b0565b9150612f2682612ebf565b604082019050919050565b60006020820190508181036000830152612f4a81612f0e565b9050919050565b7f4552433732313a207472616e7366657220746f20746865207a65726f2061646460008201527f7265737300000000000000000000000000000000000000000000000000000000602082015250565b6000612fad6024836123b0565b9150612fb882612f51565b604082019050919050565b60006020820190508181036000830152612fdc81612fa0565b9050919050565b7f4f776e61626c653a2063616c6c6572206973206e6f7420746865206f776e6572600082015250565b60006130196020836123b0565b915061302482612fe3565b602082019050919050565b600060208201905081810360008301526130488161300c565b9050919050565b600061305a826125de565b9150613065836125de565b92508260ff0382111561307b5761307a612b61565b5b828201905092915050565b7f4552433732313a20617070726f766520746f2063616c6c657200000000000000600082015250565b60006130bc6019836123b0565b91506130c782613086565b602082019050919050565b600060208201905081810360008301526130eb816130af565b9050919050565b7f4552433732313a207472616e7366657220746f206e6f6e20455243373231526560008201527f63656976657220696d706c656d656e7465720000000000000000000000000000602082015250565b600061314e6032836123b0565b9150613159826130f2565b604082019050919050565b6000602082019050818103600083015261317d81613141565b9050919050565b600081905092915050565b600061319a826123a5565b6131a48185613184565b93506131b48185602086016123c1565b80840191505092915050565b60006131cc828561318f565b91506131d8828461318f565b91508190509392505050565b60006131ef82612460565b91506131fa83612460565b9250827fffffffffffffffffffffffffffffffffffffffffffffffffffffffffffffffff0382111561322f5761322e612b61565b5b828201905092915050565b600081519050919050565b600082825260208201905092915050565b60006132618261323a565b61326b8185613245565b935061327b8185602086016123c1565b613284816123f4565b840191505092915050565b60006080820190506132a460008301876124f5565b6132b160208301866124f5565b6132be6040830185612642565b81810360608301526132d08184613256565b905095945050505050565b6000815190506132ea81612316565b92915050565b600060208284031215613306576133056122e0565b5b6000613314848285016132db565b91505092915050565b7f4552433732313a206d696e7420746f20746865207a65726f2061646472657373600082015250565b60006133536020836123b0565b915061335e8261331d565b602082019050919050565b6000602082019050818103600083015261338281613346565b9050919050565b7f4552433732313a20746f6b656e20616c7265616479206d696e74656400000000600082015250565b60006133bf601c836123b0565b91506133ca82613389565b602082019050919050565b600060208201905081810360008301526133ee816133b2565b905091905056fea26469706673582212208cd30cb78ec4e6a016de6214c3f39770ab00cbace9c32805b141d6d54c62c4e364736f6c6343000809003360806040523480156200001157600080fd5b506040518060400160405280600781526020017f4d79546f6b656e000000000000000000000000000000000000000000000000008152506040518060400160405280600381526020017f4d544b0000000000000000000000000000000000000000000000000000000000815250816003908051906020019062000096929190620001a6565b508060049080519060200190620000af929190620001a6565b505050620000d2620000c6620000d860201b60201c565b620000e060201b60201c565b620002bb565b600033905090565b6000600560009054906101000a900473ffffffffffffffffffffffffffffffffffffffff16905081600560006101000a81548173ffffffffffffffffffffffffffffffffffffffff021916908373ffffffffffffffffffffffffffffffffffffffff1602179055508173ffffffffffffffffffffffffffffffffffffffff168173ffffffffffffffffffffffffffffffffffffffff167f8be0079c531659141344cd1fd0a4f28419497f9722a3daafe3b4186f6b6457e060405160405180910390a35050565b828054620001b49062000285565b90600052602060002090601f016020900481019282620001d8576000855562000224565b82601f10620001f357805160ff191683800117855562000224565b8280016001018555821562000224579182015b828111156200022357825182559160200191906001019062000206565b5b50905062000233919062000237565b5090565b5b808211156200025257600081600090555060010162000238565b5090565b7f4e487b7100000000000000000000000000000000000000000000000000000000600052602260045260246000fd5b600060028204905060018216806200029e57607f821691505b60208210811415620002b557620002b462000256565b5b50919050565b61181280620002cb6000396000f3fe608060405234801561001057600080fd5b50600436106100f55760003560e01c806370a0823111610097578063a457c2d711610066578063a457c2d714610276578063a9059cbb146102a6578063dd62ed3e146102d6578063f2fde38b14610306576100f5565b806370a0823114610200578063715018a6146102305780638da5cb5b1461023a57806395d89b4114610258576100f5565b806323b872dd116100d357806323b872dd14610166578063313ce5671461019657806339509351146101b457806340c10f19146101e4576100f5565b806306fdde03146100fa578063095ea7b31461011857806318160ddd14610148575b600080fd5b610102610322565b60405161010f9190610f38565b60405180910390f35b610132600480360381019061012d9190610ff3565b6103b4565b60405161013f919061104e565b60405180910390f35b6101506103d7565b60405161015d9190611078565b60405180910390f35b610180600480360381019061017b9190611093565b6103e1565b60405161018d919061104e565b60405180910390f35b61019e610410565b6040516101ab9190611102565b60405180910390f35b6101ce60048036038101906101c99190610ff3565b610419565b6040516101db919061104e565b60405180910390f35b6101fe60048036038101906101f99190610ff3565b610450565b005b61021a6004803603810190610215919061111d565b610466565b6040516102279190611078565b60405180910390f35b6102386104ae565b005b6102426104c2565b60405161024f9190611159565b60405180910390f35b6102606104ec565b60405161026d9190610f38565b60405180910390f35b610290600480360381019061028b9190610ff3565b61057e565b60405161029d919061104e565b60405180910390f35b6102c060048036038101906102bb9190610ff3565b6105f5565b6040516102cd919061104e565b60405180910390f35b6102f060048036038101906102eb9190611174565b610618565b6040516102fd9190611078565b60405180910390f35b610320600480360381019061031b919061111d565b61069f565b005b606060038054610331906111e3565b80601f016020809104026020016040519081016040528092919081815260200182805461035d906111e3565b80156103aa5780601f1061037f576101008083540402835291602001916103aa565b820191906000526020600020905b81548152906001019060200180831161038d57829003601f168201915b5050505050905090565b6000806103bf610723565b90506103cc81858561072b565b600191505092915050565b6000600254905090565b6000806103ec610723565b90506103f98582856108f6565b610404858585610982565b60019150509392505050565b60006012905090565b600080610424610723565b90506104458185856104368589610618565b6104409190611244565b61072b565b600191505092915050565b610458610bfa565b6104628282610c78565b5050565b60008060008373ffffffffffffffffffffffffffffffffffffffff1673ffffffffffffffffffffffffffffffffffffffff168152602001908152602001600020549050919050565b6104b6610bfa565b6104c06000610dcf565b565b6000600560009054906101000a900473ffffffffffffffffffffffffffffffffffffffff16905090565b6060600480546104fb906111e3565b80601f0160208091040260200160405190810160405280929190818152602001828054610527906111e3565b80156105745780601f1061054957610100808354040283529160200191610574565b820191906000526020600020905b81548152906001019060200180831161055757829003601f168201915b5050505050905090565b600080610589610723565b905060006105978286610618565b9050838110156105dc576040517f08c379a00000000000000000000000000000000000000000000000000000000081526004016105d39061130c565b60405180910390fd5b6105e9828686840361072b565b60019250505092915050565b600080610600610723565b905061060d818585610982565b600191505092915050565b6000600160008473ffffffffffffffffffffffffffffffffffffffff1673ffffffffffffffffffffffffffffffffffffffff16815260200190815260200160002060008373ffffffffffffffffffffffffffffffffffffffff1673ffffffffffffffffffffffffffffffffffffffff16815260200190815260200160002054905092915050565b6106a7610bfa565b600073ffffffffffffffffffffffffffffffffffffffff168173ffffffffffffffffffffffffffffffffffffffff161415610717576040517f08c379a000000000000000000000000000000000000000000000000000000000815260040161070e9061139e565b60405180910390fd5b61072081610dcf565b50565b600033905090565b600073ffffffffffffffffffffffffffffffffffffffff168373ffffffffffffffffffffffffffffffffffffffff16141561079b576040517f08c379a000000000000000000000000000000000000000000000000000000000815260040161079290611430565b60405180910390fd5b600073ffffffffffffffffffffffffffffffffffffffff168273ffffffffffffffffffffffffffffffffffffffff16141561080b576040517f08c379a0000000000000000000000000000000000000000000000000000000008152600401610802906114c2565b60405180910390fd5b80600160008573ffffffffffffffffffffffffffffffffffffffff1673ffffffffffffffffffffffffffffffffffffffff16815260200190815260200160002060008473ffffffffffffffffffffffffffffffffffffffff1673ffffffffffffffffffffffffffffffffffffffff168152602001908152602001600020819055508173ffffffffffffffffffffffffffffffffffffffff168373ffffffffffffffffffffffffffffffffffffffff167f8c5be1e5ebec7d5bd14f71427d1e84f3dd0314c0f7b2291e5b200ac8c7c3b925836040516108e99190611078565b60405180910390a3505050565b60006109028484610618565b90507fffffffffffffffffffffffffffffffffffffffffffffffffffffffffffffffff811461097c578181101561096e576040517f08c379a00000000000000000000000000000000000000000000000000000000081526004016109659061152e565b60405180910390fd5b61097b848484840361072b565b5b50505050565b600073ffffffffffffffffffffffffffffffffffffffff168373ffffffffffffffffffffffffffffffffffffffff1614156109f2576040517f08c379a00000000000000000000000000000000000000000000000000000000081526004016109e9906115c0565b60405180910390fd5b600073ffffffffffffffffffffffffffffffffffffffff168273ffffffffffffffffffffffffffffffffffffffff161415610a62576040517f08c379a0000000000000000000000000000000000000000000000000000000008152600401610a5990611652565b60405180910390fd5b610a6d838383610e95565b60008060008573ffffffffffffffffffffffffffffffffffffffff1673ffffffffffffffffffffffffffffffffffffffff16815260200190815260200160002054905081811015610af3576040517f08c379a0000000000000000000000000000000000000000000000000000000008152600401610aea906116e4565b60405180910390fd5b8181036000808673ffffffffffffffffffffffffffffffffffffffff1673ffffffffffffffffffffffffffffffffffffffff16815260200190815260200160002081905550816000808573ffffffffffffffffffffffffffffffffffffffff1673ffffffffffffffffffffffffffffffffffffffff168152602001908152602001600020600082825401925050819055508273ffffffffffffffffffffffffffffffffffffffff168473ffffffffffffffffffffffffffffffffffffffff167fddf252ad1be2c89b69c2b068fc378daa952ba7f163c4a11628f55a4df523b3ef84604051610be19190611078565b60405180910390a3610bf4848484610e9a565b50505050565b610c02610723565b73ffffffffffffffffffffffffffffffffffffffff16610c206104c2565b73ffffffffffffffffffffffffffffffffffffffff1614610c76576040517f08c379a0000000000000000000000000000000000000000000000000000000008152600401610c6d90611750565b60405180910390fd5b565b600073ffffffffffffffffffffffffffffffffffffffff168273ffffffffffffffffffffffffffffffffffffffff161415610ce8576040517f08c379a0000000000000000000000000000000000000000000000000000000008152600401610cdf906117bc565b60405180910390fd5b610cf460008383610e95565b8060026000828254610d069190611244565b92505081905550806000808473ffffffffffffffffffffffffffffffffffffffff1673ffffffffffffffffffffffffffffffffffffffff168152602001908152602001600020600082825401925050819055508173ffffffffffffffffffffffffffffffffffffffff16600073ffffffffffffffffffffffffffffffffffffffff167fddf252ad1be2c89b69c2b068fc378daa952ba7f163c4a11628f55a4df523b3ef83604051610db79190611078565b60405180910390a3610dcb60008383610e9a565b5050565b6000600560009054906101000a900473ffffffffffffffffffffffffffffffffffffffff16905081600560006101000a81548173ffffffffffffffffffffffffffffffffffffffff021916908373ffffffffffffffffffffffffffffffffffffffff1602179055508173ffffffffffffffffffffffffffffffffffffffff168173ffffffffffffffffffffffffffffffffffffffff167f8be0079c531659141344cd1fd0a4f28419497f9722a3daafe3b4186f6b6457e060405160405180910390a35050565b505050565b505050565b600081519050919050565b600082825260208201905092915050565b60005b83811015610ed9578082015181840152602081019050610ebe565b83811115610ee8576000848401525b50505050565b6000601f19601f8301169050919050565b6000610f0a82610e9f565b610f148185610eaa565b9350610f24818560208601610ebb565b610f2d81610eee565b840191505092915050565b60006020820190508181036000830152610f528184610eff565b905092915050565b600080fd5b600073ffffffffffffffffffffffffffffffffffffffff82169050919050565b6000610f8a82610f5f565b9050919050565b610f9a81610f7f565b8114610fa557600080fd5b50565b600081359050610fb781610f91565b92915050565b6000819050919050565b610fd081610fbd565b8114610fdb57600080fd5b50565b600081359050610fed81610fc7565b92915050565b6000806040838503121561100a57611009610f5a565b5b600061101885828601610fa8565b925050602061102985828601610fde565b9150509250929050565b60008115159050919050565b61104881611033565b82525050565b6000602082019050611063600083018461103f565b92915050565b61107281610fbd565b82525050565b600060208201905061108d6000830184611069565b92915050565b6000806000606084860312156110ac576110ab610f5a565b5b60006110ba86828701610fa8565b93505060206110cb86828701610fa8565b92505060406110dc86828701610fde565b9150509250925092565b600060ff82169050919050565b6110fc816110e6565b82525050565b600060208201905061111760008301846110f3565b92915050565b60006020828403121561113357611132610f5a565b5b600061114184828501610fa8565b91505092915050565b61115381610f7f565b82525050565b600060208201905061116e600083018461114a565b92915050565b6000806040838503121561118b5761118a610f5a565b5b600061119985828601610fa8565b92505060206111aa85828601610fa8565b9150509250929050565b7f4e487b7100000000000000000000000000000000000000000000000000000000600052602260045260246000fd5b600060028204905060018216806111fb57607f821691505b6020821081141561120f5761120e6111b4565b5b50919050565b7f4e487b7100000000000000000000000000000000000000000000000000000000600052601160045260246000fd5b600061124f82610fbd565b915061125a83610fbd565b9250827fffffffffffffffffffffffffffffffffffffffffffffffffffffffffffffffff0382111561128f5761128e611215565b5b828201905092915050565b7f45524332303a2064656372656173656420616c6c6f77616e63652062656c6f7760008201527f207a65726f000000000000000000000000000000000000000000000000000000602082015250565b60006112f6602583610eaa565b91506113018261129a565b604082019050919050565b60006020820190508181036000830152611325816112e9565b9050919050565b7f4f776e61626c653a206e6577206f776e657220697320746865207a65726f206160008201527f6464726573730000000000000000000000000000000000000000000000000000602082015250565b6000611388602683610eaa565b91506113938261132c565b604082019050919050565b600060208201905081810360008301526113b78161137b565b9050919050565b7f45524332303a20617070726f76652066726f6d20746865207a65726f2061646460008201527f7265737300000000000000000000000000000000000000000000000000000000602082015250565b600061141a602483610eaa565b9150611425826113be565b604082019050919050565b600060208201905081810360008301526114498161140d565b9050919050565b7f45524332303a20617070726f766520746f20746865207a65726f20616464726560008201527f7373000000000000000000000000000000000000000000000000000000000000602082015250565b60006114ac602283610eaa565b91506114b782611450565b604082019050919050565b600060208201905081810360008301526114db8161149f565b9050919050565b7f45524332303a20696e73756666696369656e7420616c6c6f77616e6365000000600082015250565b6000611518601d83610eaa565b9150611523826114e2565b602082019050919050565b600060208201905081810360008301526115478161150b565b9050919050565b7f45524332303a207472616e736665722066726f6d20746865207a65726f20616460008201527f6472657373000000000000000000000000000000000000000000000000000000602082015250565b60006115aa602583610eaa565b91506115b58261154e565b604082019050919050565b600060208201905081810360008301526115d98161159d565b9050919050565b7f45524332303a207472616e7366657220746f20746865207a65726f206164647260008201527f6573730000000000000000000000000000000000000000000000000000000000602082015250565b600061163c602383610eaa565b9150611647826115e0565b604082019050919050565b6000602082019050818103600083015261166b8161162f565b9050919050565b7f45524332303a207472616e7366657220616d6f756e742065786365656473206260008201527f616c616e63650000000000000000000000000000000000000000000000000000602082015250565b60006116ce602683610eaa565b91506116d982611672565b604082019050919050565b600060208201905081810360008301526116fd816116c1565b9050919050565b7f4f776e61626c653a2063616c6c6572206973206e6f7420746865206f776e6572600082015250565b600061173a602083610eaa565b915061174582611704565b602082019050919050565b600060208201905081810360008301526117698161172d565b9050919050565b7f45524332303a206d696e7420746f20746865207a65726f206164647265737300600082015250565b60006117a6601f83610eaa565b91506117b182611770565b602082019050919050565b600060208201905081810360008301526117d581611799565b905091905056fea26469706673582212204f8575c46771a2acf36ea8a020c1331b1cbe57a1a6aee04b23b98226dbb8ada064736f6c63430008090033",
  "linkReferences": {},
  "deployedLinkReferences": {}
}